:100000000C9434000C943E000C943E000C943E0082
:100010000C943E000C943E000C943E000C943E0068
:100020000C943E000C943E000C943E000C943E0058
:100030000C943E000C943E000C943E000C943E0048
:100040000C943E000C943E000C943E000C943E0038
:100050000C943E000C943E000C943E000C943E0028
:100060000C943E000C943E0011241FBECFEFD8E04C
:10007000DEBFCDBF0E9452000C9486000C9400009D
:100080004F9B0EC02FEF80E792E0215080409040C0
:10009000E1F700C0000089B1881F8827881F0895F4
:1000A00080E008958FEF84B98FE78AB915B8C1E071
:1000B000D0E114E008E080E2F82E0E94400088239E
:1000C000E1F3C230A9F0C330C9F0C13031F485B1D9
:1000D0008C2785B985B18F2585B9CF5F2FEF85EA4C
:1000E0009EE0215080409040E1F700C00000E5CF45
:1000F00085B18C2785B985B18D27EECF85B1812754
:1001000085B985B1802785B9C0E0E7CFF894FFCFE6
:00000001FF
