:100000000C9434000C9446000C9446000C9446006A
:100010000C9446000C9446000C9446000C94460048
:100020000C9446000C9446000C9446000C94460038
:100030000C9446000C9446000C9446000C94460028
:100040000C9446000C9446000C9446000C94460018
:100050000C9446000C9446000C9446000C94460008
:100060000C9446000C94460011241FBECFEFD8E03C
:10007000DEBFCDBF21E0A0E0B1E001C01D92A33002
:10008000B207E1F70E9448000C948B000C9400002A
:100090008FEF8AB984B58C7F84BD85B5887F8360F6
:1000A00085BD17BC16BC1092010110920001109280
:1000B000020121E030E086B597B5893F9105D8F37C
:1000C000809100019091010101969093010180932C
:1000D000000117BC16BC8091000190910101C297EC
:1000E00090F0109201011092000180910201A9018B
:1000F00002C0440F551F8A95E2F74BB98091020167
:100100008F5F8093020180910201883008F080E0C7
:0A01100080930201D0CFF894FFCFD6
:00000001FF
