:100000000C9434000C943E000C943E000C943E0082
:100010000C943E000C943E000C943E000C943E0068
:100020000C943E000C943E000C943E000C943E0058
:100030000C943E000C943E000C943E000C943E0048
:100040000C943E000C943E000C943E000C943E0038
:100050000C943E000C943E000C943E000C943E0028
:100060000C943E000C943E0011241FBECFEFD8E04C
:10007000DEBFCDBF0E9440000C945A000C940000DB
:100080008AB18FEF8AB99BB18BB92FEF33ED90E333
:10009000215030409040E1F700C000009BB11BB8F8
:1000A0002FEF33ED90E3215030409040E1F700C056
:0800B0000000E9CFF894FFCF36
:00000001FF
