:100000000C9434000C9449000C9449000C94490061
:100010000C9449000C9449000C9449000C9449003C
:100020000C9449000C9449000C9449000C9449002C
:100030000C9449000C9449000C9449000C9449001C
:100040000C9449000C9449000C9449000C9449000C
:100050000C9449000C9449000C9449000C944900FC
:100060000C9449000C94490011241FBECFEFD8E036
:10007000DEBFCDBF11E0A0E0B1E0ECEDF1E002C0E9
:1000800005900D92A630B107D9F70E944B000C9451
:10009000EC000C94000000D000D000D0CDB7DEB74B
:1000A00086E0E0E0F1E0AE014F5F5F4FDA010190E2
:1000B0000D928A95E1F784B18F6184B915B881E01A
:1000C00090E0FA016A0165E075B1D6011D916D01FC
:1000D00025817C0102C0EE0CFF1C2A95E2F79701F6
:1000E000DC0102C0AA0FBB1F1A95E2F72A2B272BAF
:1000F00025B9BFEF09E618E1B15000401040E1F723
:1001000000C0000075B1960121503109D9012C9130
:100110007C0102C0EE0CFF1C2A95E2F797013581A5
:100120008C0101C0000F3A95EAF7202B2095272378
:1001300025B90FEF19E628E1015010402040E1F702
:1001400000C00000633029F061503197623009F03F
:10015000BBCFFE0134966F0125B1D6013D916D01F3
:1001600062917C0102C0EE0CFF1C6A95E2F72E2919
:10017000BC0101C0660F3A95EAF7262B25B90FEFAF
:1001800019E628E1015010402040E1F700C00000CE
:1001900065B19D0121503109D9012C917C0102C02A
:1001A000EE0CFF1C2A95E2F7970130818C0101C00B
:1001B000000F3A95EAF7202B2095262325B90FEF5B
:1001C00019E628E1015010402040E1F700C000008E
:0C01D0004E175F0709F675CFF894FFCFBB
:0601DC000001020304050E
:00000001FF
