:100000000C9434000C948D000C949F000C944600CA
:100010000C9446000C9446000C9446000C94460048
:100020000C9446000C9446000C9446000C94460038
:100030000C9446000C9446000C9446000C94460028
:100040000C9446000C9446000C9446000C94460018
:100050000C9446000C9446000C9446000C94460008
:100060000C9446000C94460011241FBECFEFD8E03C
:10007000DEBFCDBF21E0A0E0B1E001C01D92A23003
:10008000B207E1F70E94B1000C94CF000C9400007D
:100090001092000121E030E090910001963008F0CC
:1000A000089585B1A90101C0440F9A95EAF7842704
:1000B00085B94FEF81EE94E0415080409040E1F7E8
:1000C00000C00000809100018F5F80930001E4CFA9
:1000D00087E08093000141E050E0809100018111B0
:1000E00001C0089525B18150990BBA0102C0660F75
:1000F000771F8A95E2F7CB01822785B97FEF81EEE2
:1001000094E0715080409040E1F700C00000809181
:100110000001815080930001E0CF8F938FB78F93C0
:100120009F9381E0809301019BB1892F8F7B96FF84
:1001300080648BB99F918F918FBF8F9118958F930A
:100140008FB78F939F9382E0809301019BB1892F9A
:1001500097FB87F980588BB99F918F918FBF8F91B3
:1001600018958FEF84B915B88AB1806C8AB98DB3B0
:1001700083608DBB80916900807F8E608093690071
:1001800078941092010180910101813029F0823030
:10019000D1F70E946800F7CF0E944800F4CFF8948E
:0201A000FFCF8F
:00000001FF
