:100000000C9434000C943E000C943E000C94400080
:100010000C943E000C943E000C943E000C943E0068
:100020000C943E000C943E000C943E000C943E0058
:100030000C943E000C943E000C943E000C943E0048
:100040000C943E000C943E000C943E000C943E0038
:100050000C943E000C943E000C943E000C943E0028
:100060000C943E000C943E0011241FBECFEFD8E04C
:10007000DEBFCDBF0E944A000C9458000C940000D3
:100080008F938FB78F938BB180958BB98F918FBFE3
:100090008F9118958FEF8AB9809168008160809365
:1000A000680080916B00806280936B007894FFCF32
:0400B000F894FFCFF2
:00000001FF
