:100000000C9434000C943E000C943E000C943E0082
:100010000C943E000C943E000C943E000C943E0068
:100020000C943E000C943E000C943E000C943E0058
:100030000C943E000C943E000C943E000C943E0048
:100040000C943E000C943E000C943E000C943E0038
:100050000C943E000C943E000C943E000C943E0028
:100060000C943E000C943E0011241FBECFEFD8E04C
:10007000DEBFCDBF0E9440000C945F000C940000D6
:100080008FEF84B98FE78AB915B88FEF4F9B15C0F2
:100090002FEF35EA9EE0215030409040E1F700C05C
:1000A000000085B94F9BFDCF2FEF35EA9EE0215030
:1000B00030409040E1F700C0000015B8E7CFF89459
:0200C000FFCF70
:00000001FF
