:100000000C9434000C943E000C943E000C943E0082
:100010000C943E000C943E000C943E000C943E0068
:100020000C943E000C943E000C943E000C943E0058
:100030000C943E000C943E000C943E000C943E0048
:100040000C943E000C943E000C943E000C943E0038
:100050000C943E000C943E000C943E000C943E0028
:100060000C943E000C943E0011241FBECFEFD8E04C
:10007000DEBFCDBF0E9486000C94AA000C94000045
:100080004F9B0EC02FEF80E792E0215080409040C0
:10009000E1F700C0000089B1881F8827881F0895F4
:1000A00080E0089590E080E061E070E025B1AB0170
:1000B000082E01C0440F0A94EAF7242725B92FEF30
:1000C00031EE44E0215030404040E1F700C00000F4
:1000D00001968630910551F7089585E090E061E042
:1000E00070E025B1AB01082E01C0440F0A94EAF775
:1000F000242725B92FEF31EE44E021503040404015
:10010000E1F700C00000019760F708958FEF84B910
:100110008FE78AB915B8C0E00E9440008823E1F358
:10012000CC2361F0C13081F02FEF81EE94E02150BB
:1001300080409040E1F700C00000EECF0E945200E6
:100140000E944000C82FF0CF0E946D000E94400026
:08015000C81BEACFF894FFCFB1
:00000001FF
